:04000000803114280F
:100008007E1480314E01161E0A280B2812280C1E59
:100018000E280F28122880319B2080317E1009007D
:10002800803116287E104001803148280430400174
:10003800980099019A013B309200F0309300FF300C
:10004800940033307E01B800F030C300FF30CE009A
:10005800B901C401CF01BA01C501D0013730BB00D5
:10006800F030C600FF30D1003F30BC00F030C70090
:10007800FF30D200BD01BE01BF01C801C901CA01DC
:10008800D301D401D5010800803172208031640089
:10009800400118110230F3004530F200AA30890BF4
:1000A8005328F20B5328F30B532863000310400125
:1000B800181D0314031861286428400118156628C0
:1000C80040011811A330F2005530890B6928F20B52
:1000D8006928000064005A288031142880318A2059
:1000E800803180311A2080318031972080318031F1
:1000F8007F20803108004E010C100B140030F000F6
:100108000030F10080319220803108002030510108
:100118008E00910193019001920108007108F50089
:100128007008F4000800193050018C00080008001D
:020000040001F9
:04000E00ED3FEF3F94
:04001400EF3FFF3F7C
:00000001FF
