:020000040000FA
:08000000803102288731FD2F39
:100F3600183050018C000800510191019301920173
:100F460008008731AE27873187319F278731873160
:100F56009B27873108004001980199019A013B308F
:100F66009200F0309300FF309400FF307E01CE00F7
:100F7600F030C3003330B800C401B901CF010430EA
:100F8600BA00C501D0013730BB00F030C600FF30D3
:100F9600D1003F30BC00F030C700FF30D20008005F
:100FA6008731A42787316400400112110230F10015
:100FB6004530F000AA30890BDE2FF00BDE2FF10B47
:100FC600DE2F630040011215A330F0005530890B67
:100FD600EA2FF00BEA2F000040011211A330F000B7
:100FE6005530890BF42FF00BF42F00006400E52F29
:0A0FF6008031022840018731D32F1B
:020000040001F9
:04000E00ED3FFF3F84
:04001400FF3FFF3F6C
:00000001FF
