:020000040000FA
:08000000803102288731FD2F39
:100F3E00183050018C00080051019101930192016B
:100F4E0008008731B12787318731A3278731873151
:100F5E009F270800980199019A013B309200F030CA
:100F6E009300FF309400FF307E01CE00F030C300BE
:100F7E003330B800C401B901CF010430BA00C50145
:100F8E00D0013730BB00F030C600FF30D1003F300B
:100F9E00BC00F030C700FF30D20008008731A82710
:100FAE0087316400400112110230F1004530F0002B
:100FBE00AA30890BE02FF00BE02FF10BE02F63002E
:100FCE0040011215A330F0005530890BEC2FF00BB9
:100FDE00EC2F000040011211A330F0005530890BA8
:100FEE00F62FF00BF62F00006400E72F400187313B
:020FFE00D52FED
:020000040001F9
:04000E00ED3FFF3F84
:04001400FF3FFF3F6C
:00000001FF
