:020000040000FA
:08000000803102288731A62F90
:100F4C004001A82FCF2787316400400112110230D5
:100F5C00F1004530F000AA30890BB22FF00BB22F04
:100F6C00F10BB22F630040011215A330F000553085
:100F7C00890BBE2FF00BBE2F000040011211A330C5
:100F8C00F0005530890BC82FF00BC82F00006400FF
:100F9C00B92FD4278731F7278731FC2F9801990176
:100FAC009A013B309200F0309300FF3094007E01A8
:100FBC00CE00F030C3003330B800C401B901CF010A
:100FCC000430BA00C501D0013730BB00F030C60088
:100FDC00FF30D1003F30BC00F030C700FF30D200F2
:100FEC000800510191019301920108001830500141
:040FFC008C0008005D
:020000040001F9
:04000E00ED3FFF3F84
:04001400FF3FFF3F6C
:00000001FF
